:020000040800F2
:1000000000500020710B0008C10B0008C10B000854
:10001000C10B0008C10B0008C10B00080000000064
:10002000000000000000000000000000C10B0008FC
:10003000C10B000800000000C10B0008C10B000844
:10004000C10B0008C10B0008C10B0008C10B000860
:10005000C10B0008C10B0008C10B0008C10B000850
:10006000C10B0008C10B0008C10B0008C10B000840
:10007000C10B0008C10B0008C10B0008C10B000830
:10008000C10B0008C10B0008C10B0008C10B000820
:10009000C10B0008C10B0008C10B0008C10B000810
:1000A000C10B0008C10B0008C10B0008C10B000800
:1000B000C10B0008C10B0008C10B0008C10B0008F0
:1000C000C10B0008C10B0008C10B0008C10B0008E0
:1000D000C10B0008C10B0008C10B0008C10B0008D0
:1000E000C10B0008C10B000800000000C10B000894
:1000F000C10B0008C10B0008C10B0008C10B0008B0
:10010000C10B0008C10B0008C10B0008C10B00089F
:10011000C10B0008C10B0008C10B0008C10B00088F
:10012000C10B0008C10B0008C10B0008C10B00087F
:1001300010B5054C237833B9044B13B10448AFF321
:1001400000800123237010BD00000020000000008B
:100150000C0C000808B5034B1BB103490348AFF36F
:10016000008008BD00000000040000200C0C000806
:1001700080F0004002E000BF81F0004142001FBF5C
:100180005FEA410392EA030F7FEA226C7FEA236C65
:100190006AD04FEA1262D2EB1363C1BFD21841405A
:1001A00048404140B8BF5B42192B88BF704710F0F0
:1001B000004F40F4000020F07F4018BF404211F093
:1001C000004F41F4000121F07F4118BF494292EAFB
:1001D000030F3FD0A2F1010241FA03FC10EB0C0027
:1001E000C3F1200301FA03F100F0004302D54942B4
:1001F00060EB4000B0F5000F13D3B0F1807F06D361
:1002000040084FEA310102F10102FE2A51D2B1F158
:10021000004F40EBC25008BF20F0010040EA03004D
:100220007047490040EB0000013A28BFB0F5000FCD
:10023000EDD2B0FA80FCACF1080CB2EB0C0200FA83
:100240000CF0AABF00EBC25052421843BCBFD040D2
:100250001843704792F0000F81F4000106BF80F44C
:1002600000000132013BB5E74FEA41037FEA226C0F
:1002700018BF7FEA236C21D092EA030F04D092F0DA
:10028000000F08BF0846704790EA010F1CBF00200E
:10029000704712F07F4F04D1400028BF40F000406B
:1002A000704712F100723CBF00F50000704700F08B
:1002B000004343F0FE4040F4000070477FEA2262B2
:1002C00016BF08467FEA23630146420206BF5FEA83
:1002D000412390EA010F40F4800070474FF0000383
:1002E00004E000BF10F0004348BF40425FEA000C4A
:1002F00008BF704743F0964301464FF000001CE0F2
:1003000050EA010208BF70474FF000030AE000BF47
:1003100050EA010208BF704711F0004302D5404285
:1003200061EB41015FEA010C02BF844601460020F7
:1003300043F0B64308BFA3F18053A3F50003BCFA12
:100340008CF2083AA3EBC25310DB01FA02FC6344BF
:1003500000FA02FCC2F12002BCF1004F20FA02F2C6
:1003600043EB020008BF20F00100704702F12002B9
:1003700001FA02FCC2F1200250EA4C0021FA02F21A
:1003800043EB020008BF20EADC7070474FF0FF0C1F
:100390001CEAD0521EBF1CEAD15392EA0C0F93EA1A
:1003A0000C0F6FD01A4480EA010C400218BF5FEABC
:1003B00041211ED04FF0006343EA501043EA51112F
:1003C000A0FB01310CF00040B1F5000F3EBF490029
:1003D00041EAD3715B0040EA010062F17F02FD2A2D
:1003E0001DD8B3F1004F40EBC25008BF20F0010010
:1003F000704790F0000F0CF0004C08BF49024CEA27
:10040000502040EA51207F3AC2BFD2F1FF0340EAB8
:10041000C250704740F400004FF00003013A5DDC29
:1004200012F1190FDCBF00F000407047C2F100026A
:10043000410021FA02F1C2F1200200FA02FC5FEA57
:10044000310040F1000053EA4C0308BF20EADC70A1
:10045000704792F0000F00F0004C02BF400010F413
:10046000000F013AF9D040EA0C0093F0000F01F0C0
:10047000004C02BF490011F4000F013BF9D041EAE2
:100480000C018FE70CEAD15392EA0C0F18BF93EAE4
:100490000C0F0AD030F0004C18BF31F0004CD8D10E
:1004A00080EA010000F00040704790F0000F17BF95
:1004B00090F0004F084691F0000F91F0004F14D0DB
:1004C00092EA0C0F01D142020FD193EA0C0F03D133
:1004D0004B0218BF084608D180EA010000F0004036
:1004E00040F0FE4040F40000704740F0FE4040F411
:1004F000400070474FF0FF0C1CEAD0521EBF1CEAB0
:10050000D15392EA0C0F93EA0C0F69D0A2EB0302CD
:1005100080EA010C49024FEA402037D04FF0805367
:1005200043EA111143EA10130CF000408B4238BF2C
:100530005B0042F17D024FF4000C8B4224BF5B1A3A
:1005400040EA0C00B3EB510F24BFA3EB510340EA88
:100550005C00B3EB910F24BFA3EB910340EA9C0036
:10056000B3EBD10F24BFA3EBD10340EADC001B01A6
:1005700018BF5FEA1C1CE0D1FD2A3FF650AF8B424A
:1005800040EBC25008BF20F0010070470CF0004C57
:100590004CEA50207F32C2BFD2F1FF0340EAC25082
:1005A000704740F400004FF00003013A37E792F043
:1005B000000F00F0004C02BF400010F4000F013AA1
:1005C000F9D040EA0C0093F0000F01F0004C02BF9C
:1005D000490011F4000F013BF9D041EA0C0195E705
:1005E0000CEAD15392EA0C0F08D142027FF47DAF9E
:1005F00093EA0C0F7FF470AF084676E793EA0C0F8E
:1006000004D14B023FF44CAF08466EE730F0004C8B
:1006100018BF31F0004CCAD130F000427FF45CAF1B
:1006200031F000437FF43CAF5FE700BF42000ED2E1
:10063000B2F1FE4F0BD34FF09E03B3EB126209D41D
:100640004FEA002343F0004323FA02F070474FF0D3
:100650000000704712F1610F01D1420202D14FF048
:10066000FF3070474FF00000704700BF80B485B086
:1006700000AF03463960FB8013467B712C4B9B68AF
:1006800003F08063002B02D00023FB7314E0284B9F
:100690009B6803F00063002B02D00123FB730BE087
:1006A000234B9B6803F08053002B02D00223FB7383
:1006B00002E04FF0FF3335E0FA881D49FB7B52051D
:1006C00018331B010B441A607A791949FB7B02F03D
:1006D0000F0218331B010B4404331A603B681B786C
:1006E0001A463B6801331B781B021A433B680233EE
:1006F0001B781B0442EA03010D4AFB7B1B011344D8
:1007000003F5C47319600A4AFB7B18331B011344B9
:100710001A680749FB7B42F0010218331B010B44A6
:100720001A60002318461437BD4680BC704700BFCE
:100730000064004080B483B000AF0346FB710C4AF4
:10074000FB7953630A4B9B68094A43F48003936027
:1007500000BF074B1B6803F00203002BF9D0044BCA
:10076000DB6C9BB218460C37BD4680BC704700BF9F
:100770000024014080B400AF064B9B689B08DBB2AD
:10078000DB43DBB203F00703DBB21846BD4680BC97
:10079000704700BF0008014080B400AF274B1B68C2
:1007A000264A43F48033136000BF244B1B6803F4D4
:1007B0000033002BF9D0224B1B68214A43F014036D
:1007C00013601E4B5B681D4A43F4803353601B4B20
:1007D0001A4A5B685360194B5B68184A43F4E0138C
:1007E0005360164B154A5B685360144B134A5B68A1
:1007F0005360124B5B68114A43F4806353600F4BA4
:100800001B680E4A43F08073136000BF0B4B1B68DC
:1008100003F00073002BF9D0084B5B68074A43F0E4
:100820000203536000BF054B5B6803F00803002B15
:10083000F9D000BF00BFBD4680BC70470010024029
:100840000020024080B400AF4D4B9B694C4A43F0FE
:10085000040393614A4BDB69494A43F00073D36157
:10086000484B5B68474A23F470435360454B5B68D1
:10087000444A43F400435360424BDB68414A43F42B
:100880000063D3603F4B5B683E4A23F470235360A0
:100890003C4B5B683B4A43F4302353603A4B1B6844
:1008A000394A43F00103136000BF374B5B6803F024
:1008B0000103002BF9D0344BDB69334A43F00303C7
:1008C000D361314BDB69304A43F44023D3612E4B73
:1008D000DB692D4A43F4A003D3612B4BD3F80032DC
:1008E000294A43F00103C2F80032274BD3F81C32E7
:1008F000254A23F00103C2F81C32234BD3F80432FB
:10090000214A23F00103C2F804321F4BD3F80C3202
:100910001D4A43F00103C2F80C321B4BD3F81432CA
:10092000194A23F00103C2F81432174B4FF000525A
:10093000C3F84022144B154AC3F84422124BD3F893
:100940001C32114A43F00103C2F81C320E4BD3F89B
:1009500000320D4A23F00103C2F800320A4B1B6833
:10096000094A23F00103136000BF074B5B6803F0E3
:100970000103002BF9D100BF00BFBD4680BC70470A
:10098000001002400008014000640040000080FFA9
:1009900080B483B000AF244B9B69234A43F0040327
:1009A0009361214B9B69204A43F4007393611F4B71
:1009B0001B681E4A23F00F0313601C4B1B681B4A65
:1009C00023F0F00313601A4B9B68194A43F00103AC
:1009D000936000237B6002E07B6801337B607B686F
:1009E000B3F57A7FF8DB124B9B68114A43F004039E
:1009F000936000BF0E4B9B6803F00403002BF9D1FA
:100A00000B4B00225A600A4B0022DA62084B00228C
:100A10001A61074B9B68064A43F00103936000BFCD
:100A20000C37BD4680BC70470010024000080140F2
:100A30000024014080B400AF194B9B69184A43F071
:100A400004039361174B1B68164A23F47063136009
:100A5000144B1B68134A23F470431360114B1B683B
:100A6000104A23F4702313600E4B1B680D4A43F4A5
:100A7000006313600B4B1B680A4A43F40043136086
:100A8000084B1B68074A43F400231360054BDB68DF
:100A9000044A43F01C03D36000BFBD4680BC7047CE
:100AA000001002400008014080B584B000AFFFF79D
:100AB00073FEFFF7C7FEFFF76BFFFFF7BBFF3B1DA2
:100AC00000210A461A800A469A700120FFF732FE7A
:100AD0000346FB81FB89642202FB03F31F4A82FB6E
:100AE00003121A44D212DB17D31ADBB23B71FFF7A1
:100AF00041FE03467B710020FFF71CFE0346BB81CD
:100B0000BB891846FFF7EEFB034615491846FFF769
:100B10003DFC034613491846FFF7ECFC0346124917
:100B20001846FFF7E7FC0346BB60B868FFF77EFD99
:100B30000346DBB2BB713B1D032219464FF48070A4
:100B4000FFF794FD00233B6002E03B6801333B600C
:100B50003B68064A9342F8DDB7E700BF8100088092
:100B60003333534000F07F450AD7233C1FA10700D1
:100B70000D488546AFF300800C480D490D4A00230F
:100B800002E0D458C4500433C4188C42F9D30A4A42
:100B90000A4C002301E013600432A242FBD300F0B0
:100BA00011F8FFF781FFFEE7005000200000002051
:100BB000000000202C0C0008000000201C00002079
:100BC000FEE7000070B500260C4D0D4C641BA41010
:100BD000A64209D100F01AF800260A4D0A4C641BFF
:100BE000A410A64205D170BD55F8043B98470136C4
:100BF000EEE755F8043B98470136F2E7240C00086D
:100C0000240C0008240C0008280C0008F8B500BFCC
:100C1000F8BC08BC9E467047F8B500BFF8BC08BCDD
:040C20009E46704735
:040C2400550100086E
:040C2800310100088E
:0400000508000B7173
:00000001FF
